:020000040800F2
:1000000068040020010100082B0A00088909000883
:10001000290A00086D010008790A000800000000A4
:100020000000000000000000000000002F0A00088F
:100030006F010008000000002D0A0008310A0008C6
:100040001B0100081B0100081B0100081B01000820
:100050001B0100081B0100081B0100081B01000810
:100060001B0100081B0100081B0100081B01000800
:100070001B0100081B0100081B0100081B010008F0
:100080001B0100081B0100081B0100081B010008E0
:100090001B0100081B0100081B0100081B010008D0
:1000A0001B0100081B0100081B0100081B010008C0
:1000B0001B0100081B0100081B0100081B010008B0
:1000C0001B0100081B0100081B0100081B010008A0
:1000D0001B0100081B0100081B0100081B01000890
:1000E0001B0100081B0100081B010008DFF80CD0F1
:1000F00000F02AF800480047B11500086804002005
:100100000648804706480047FEE7FEE7FEE7FEE7B1
:10011000FEE7FEE7FEE7FEE7FEE7FEE7770A0008F8
:10012000ED000008D2B201E000F8012B491EFBD21D
:1001300070470022F6E710B513460A4604461946F2
:10014000FFF7F0FF204610BD064C074D06E0E068C3
:1001500040F0010394E8070098471034AC42F6D30E
:10016000FFF7C8FFC4190008E4190008FEE770474C
:1001700070B5044600F008F90546601C02D004483A
:100180000078044400F000F9401BA042FAD370BD8F
:10019000080000202DE9F84FDFF8B891002409F19C
:1001A000040A0AF1040B23460F270BF1040EC9E0E1
:1001B0000125A5402A40AA427DD1674ED1F804C04E
:1001C000ACEB0608B44532D014DCBCF1030F3AD0D6
:1001D00009DCBCF1000F2AD0BCF1010F1CD0BCF12E
:1001E000020F31D11DE0BCF1110F17D0BCF1120F7D
:1001F0002AD119E0B8F5881F19D006DCB8F5803F80
:1002000015D0B8F5801F1FD111E0B8F5001F0ED032
:10021000B8F5041F18D10AE0CB6815E0CB681B1DA8
:1002200012E0CB6808330FE0CB680C330CE08B682E
:100230002BB1012B4FF0080303D0456104E00423E8
:1002400002E0056100E00023FF2A01D8064601E034
:1002500000F104064FEA840501D9A5F12005D6F87E
:10026000008007FA05FC28EA0C0803FA05F548EABD
:100270000508C6F800804D68ED0062D5374DAE69BF
:1002800046F00106AE61AD6924F0030605F00105F4
:100290000095334D06EB050CDCF80850A607360F29
:1002A00007FA06F825EA0805DFF8B880404503D1CB
:1002B0004FF0000817E044E0DFF8AC80404502D181
:1002C0004FF001080FE0DFF8A480404502D14FF065
:1002D000020808E0DFF89880404502D14FF003089B
:1002E00001E04FF0040808FA06F848EA0508CCF8DF
:1002F00008804D68D9F80060ED034D4601D51643DE
:1003000000E096432E604D68DAF80060AD03554674
:1003100001D5164300E096432E604D68DBF800607F
:10032000ED025D4601D5164300E096432E604D6810
:10033000DEF80060AD02754601D5164300E0964335
:100340002E60641C0D682A46E5407FF431AFBDE89D
:10035000F88F00000004014000001110001002405E
:100360000000014000080140000C01400010014065
:10037000001401408068084000D0012070470AB195
:10038000016170470904FBE701488068704700007D
:10039000080000200248816802781144816070479B
:1003A00008000020074810B5016841F01001016005
:1003B000032000F067F8002000F006F800F024F8B1
:1003C000002010BD0020024070B50D4D04464FF4D2
:1003D0007A712878B1FBF0F00A490968B1FBF0F0B6
:1003E00000F0BEFA48B9102C07D200222146501E58
:1003F00000F028F800206C6070BD012070BD000086
:1004000008000020140000200C4808B5816941F064
:1004100001018161816901F001010091C16941F02F
:100420008051C161C06900F080500090044841686B
:1004300021F0E06141F00071416008BD0010024010
:1004400000000140F0B40E4B1B680C46C3F30223BE
:10045000C3F10705042D00D90425191D072901D270
:10046000002300E0DB1E012606FA05F1491E2140AB
:1004700099409E40761E16403143F0BC00F0FDBA14
:100480000CED00E0064900F0070208684FF6FF0394
:10049000184040EA0220034A1043086070470000F9
:1004A0000CED00E00000FA052DE9F0470F460500CD
:1004B00061D0434E306800F00700B84209D230687E
:1004C00020F0070038433060306800F00700B84281
:1004D00051D128683B4C810712D5400703D560688D
:1004E00040F4E06060602878000703D5606840F45D
:1004F000605060606068A96820F0F00008436060A8
:100500002878C00728D06868012810D02168022800
:1005100010D0890700292EDA616821F00301014318
:100520006160FFF731FF804641F288390DE02168B4
:100530008903EFE78901EDE7FFF726FFA0EB08014C
:10054000494502D90320BDE8F0876068696800F07A
:100550000C00B0EB810FEFD1306800F00700B8421B
:100560000BD9306820F0070038433060306800F065
:100570000700B84201D00120E5E72878400705D5FB
:100580006068E96820F4E06008436060287800074C
:1005900006D56068296920F4605040EAC1006060B7
:1005A00000F018F86168084AC1F30311515CC840B3
:1005B0000649086006480068FFF706FF0020C2E70A
:1005C0000020024000100240B4190008140000206E
:1005D0000C00002012A185B00FC98DE80F0014A0F7
:1005E000144A006804905168134801F00C03042B6E
:1005F00010D0082B0ED1C1F38343C9031DF80300AB
:100600000AD5516804AAC1F34041515C0A4A5043DB
:10061000B0FBF1F005B0704708494843FAE7000025
:1006200002030405060708090A0B0C0D0E0F101033
:10063000010200000010024000127A0000093D0093
:100640002DE9F84F040070D02078C04DC00749D084
:100650006868C0F38100012807D06868C0F3810092
:10066000022809D16868C00306D52868800339D5F7
:1006700060680028E7D035E06068B0F5803F0BD0B7
:1006800010B1B0F5A02F11D0286820F48030286078
:10069000286820F4802002E0286840F48030286038
:1006A000606890B1FFF770FE06460AE0286840F4E3
:1006B00080202860F0E700BFFFF766FE801B6428FB
:1006C00073D828688003F7D50CE0FFF75DFE064677
:1006D00005E000BFFFF758FE801B6428F0D82868AB
:1006E0008003F7D420789A4E80074FF001094FF02D
:1006F000000839D5686810F00C0F07D06868C0F39F
:100700008100022809D16868C00306D428688007E0
:1007100014D52069012808D110E02069B0B1C6F8CD
:100720000090FFF731FE074605E00AE1FFF72CFED7
:10073000C01B0228C4D828688007F7D528686169DB
:1007400020F0F80040EAC10028600DE0C6F8008003
:10075000FFF71AFE074604E0FFF716FEC01B02284B
:1007600023D828688007F7D4207800072CD579484B
:10077000A169D9B1C0F80090FFF706FE074604E072
:10078000FFF702FEC01B02280FD8686A8007F7D562
:1007900071484FF4FA510068B0FBF1F0009000BFCF
:1007A0000098411E0091FAD20EE080E0C0F800806F
:1007B000FFF7EAFD074604E0FFF7E6FDC01B02284D
:1007C00075D8686A8007F7D42078400760D5E86953
:1007D0000027C00008D4E86940F08050E861E8696B
:1007E000012700F0805000905C480168C90513D4CF
:1007F0000168834641F480710160FFF7C5FD8246C0
:1008000006E000BFFFF7C0FDA0EB0A0064284ED849
:10081000DBF80000C005F5D5E06801280AD008B172
:10082000052813D0286A20F001002862286A20F0E9
:10083000040002E0286A40F001002862E06841F20A
:10084000883B98B1FFF7A0FD82460BE0286A40F094
:1008500004002862EEE700BFFFF796FDA0EB0A0157
:1008600059455AD8286A8007F6D50CE0FFF78CFD69
:10087000824605E0FFF788FDA0EB0A0159454CD8F8
:10088000286A8007F6D41FB1E86920F08050E8613B
:10089000E06988B36968C1F38101022944D0022864
:1008A000C6F8608004D0FFF76FFD044638E034E0FE
:1008B000FFF76AFD074604E0FFF766FDC01B02284C
:1008C0002BD828688001F7D4206AB0F5803F05D185
:1008D0006868A16820F4003008436860D4E9080122
:1008E0000843696821F4741108436860C6F8609091
:1008F000FFF74AFD044606E025E000BFFFF744FD90
:10090000001B022809D828688001F7D51BE000BF2A
:10091000FFF73AFD001B022802D90320BDE8F88F3B
:1009200028688001F4D40EE00128F7D06868226AB4
:1009300000F48031914204D1616A00F47010884261
:1009400001D00120EAE70020E8E7000000100240A3
:100950000000424280044242140000200070004027
:1009600010B5401EB0F1807F01D3012010BD4FF0C3
:10097000E02460610F21601700F07FF80020A06183
:1009800007202061002010BDFEE700002DE9F043A4
:1009900085B0002421480094019402940394816955
:1009A00041F004018161816901F0040104918169D0
:1009B00041F0080181618069DFF8648000F008007F
:1009C00041F6FE750490002229464046FFF7D7FC09
:1009D000DFF8509040F2FE77002239464846FFF794
:1009E000CEFC0095022601250396CDE90154694607
:1009F0004046FFF7CFFB4FF601008DE83100694616
:100A00004846FFF7C7FB00970396CDE901546946B6
:100A10004846FFF7BFFB05B0BDE8F0830010024079
:100A200000080140000C0140FEE770477047704726
:100A3000FFF7B0BC10B590B028216846FFF779FBEE
:100A400014210AA8FFF775FB0220009001200490F2
:100A500010200024059007946846FFF7F1FD0F2051
:100A6000CDE90A040C940D9400210AA80E94FFF716
:100A70001BFD10B010BD7047FEE70907090E0028E6
:100A800004DB00F1E02080F80014704700F00F0054
:100A900000F1E02080F8141D704702E008C8121F22
:100AA00008C1002AFAD170477047002001E001C157
:100AB000121F002AFBD170472DE9F047FF4C00229E
:100AC00020212046FFF75BFC6420FFF751FB00224A
:100AD00020212046FFF753FC012240212046FFF74A
:100AE0004EFCF74D012202212846FFF748FC642006
:100AF000FFF73EFB002240212046FFF740FC00228A
:100B000002212846FFF73BFC012280212046FFF707
:100B100036FC012204212846FFF731FC6420FFF750
:100B200027FB002280212046FFF729FC0022042118
:100B30002846FFF724FC012208212046FFF71FFC6E
:100B4000012208212846FFF71AFC6420FFF710FB5A
:100B5000002208212046FFF712FC00220821284627
:100B6000FFF70DFC012210212046FFF708FC0122AF
:100B700010212846FFF703FC6420FFF7F9FA002252
:100B800010212046FFF7FBFB002210212846FFF72B
:100B9000F6FB012202212046FFF7F1FB0122202172
:100BA0002846FFF7ECFB6420FFF7E2FA002202215F
:100BB0002046FFF7E4FB002220212846FFF7DFFB59
:100BC000012240212846FFF7DAFB012216033146B5
:100BD0002846FFF7D4FB6420FFF7CAFA0022402121
:100BE0002846FFF7CCFB002231462846FFF7C7FB1B
:100BF000012280212846FFF7C2FB0122D702394695
:100C00002846FFF7BCFB6420FFF7B2FA00228021E0
:100C10002846FFF7B4FB002239462846FFF7AFFB12
:100C20004FF48078012241462846FFF7A8FB4FF495
:100C30008069012249462846FFF7A1FB6420FFF79F
:100C400097FA002241462846FFF799FB00224946C1
:100C50002846FFF794FB012251022846FFF78FFB3D
:100C60006420FFF785FA012220212046FFF787FB49
:100C70006420FFF77DFA002220212046FFF77FFB4A
:100C8000012240212046FFF77AFB0122022128465B
:100C9000FFF775FB6420FFF76BFA00224021204626
:100CA000FFF76DFB002202212846FFF768FB0122B7
:100CB00080212046FFF763FB012204212846FFF72D
:100CC0005EFB6420FFF754FA002280212046FFF7E4
:100CD00056FB002204212846FFF751FB0122082180
:100CE0002046FFF74CFB012208212846FFF747FB6F
:100CF0006420FFF73DFA002208212046FFF73FFB62
:100D0000002208212846FFF73AFB01221021204645
:100D1000FFF735FB012210212846FFF730FB642046
:100D2000FFF726FA002210212046FFF728FB0022B9
:100D300010212846FFF723FB012202212046FFF75E
:100D40001EFB012220212846FFF719FB6420FFF734
:100D50000FFA002202212046FFF711FB002220217A
:100D60002846FFF70CFB012240212846FFF707FB2E
:100D7000012231462846FFF702FB6420FFF7F8F90D
:100D8000002240212846FFF7FAFA00223146284681
:100D9000FFF7F5FA012280212846FFF7F0FA012239
:100DA00039462846FFF7EBFA6420FFF7E1F9002205
:100DB00080212846FFF7E3FA002239462846FFF74C
:100DC000DEFA012241462846FFF7D9FA01224946B8
:100DD0002846FFF7D4FA6420FFF7CAF90122202140
:100DE0002046FFF7CCFA6420FFF7C2F90022202149
:100DF0002046FFF7C4FA012240212046FFF7BFFA40
:100E0000012202212846FFF7BAFA6420FFF7B0F961
:100E1000002240212046FFF7B2FA00220221284694
:100E2000FFF7ADFA012280212046FFF7A8FA012240
:100E300004212846FFF7A3FA6420FFF799F900225E
:100E400080212046FFF79BFA002204212846FFF765
:100E500096FA012208212046FFF791FA0122082183
:100E60002846FFF78CFA6420FFF782F90022082158
:100E70002046FFF784FA002208212846FFF77FFA70
:100E8000012210212046FFF77AFA0122102128467C
:100E9000FFF775FA6420FFF76BF900221021204656
:100EA000FFF76DFA002210212846FFF768FA0122A9
:100EB00002212046FFF763FA012203E0000C014003
:100EC0000008014020212846FFF759FA6420FFF767
:100ED0004FF9002202212046FFF751FA002220217B
:100EE0002846FFF74CFA012240212846FFF747FA2F
:100EF000012231462846FFF742FA6420FFF738F90D
:100F0000002240212846FFF73AFA002231462846BF
:100F1000FFF735FA012280212846FFF730FA012237
:100F200039462846FFF72BFA6420FFF721F9012202
:100F300020212046FFF723FA6420FFF719F9002249
:100F400020212046FFF71BFA012240212046FFF70F
:100F500016FA012202212846FFF711FA6420FFF752
:100F600007F9002240212046FFF709FA002202215A
:100F70002846FFF704FA012280212046FFF7FFF9F7
:100F8000012204212846FFF7FAF96420FFF7F0F860
:100F9000002280212046FFF7F2F900220421284692
:100FA000FFF7EDF9012208212046FFF7E8F90122B9
:100FB00008212846FFF7E3F96420FFF7D9F800225B
:100FC00008212046FFF7DBF9002208212846FFF719
:100FD000D6F9012210212046FFF7D1F90122102174
:100FE0002846FFF7CCF96420FFF7C2F80022102151
:100FF0002046FFF7C4F9002210212846FFF7BFF969
:10100000012202212046FFF7BAF9012220212846B9
:10101000FFF7B5F96420FFF7ABF800220221204664
:10102000FFF7ADF9002220212846FFF7A8F9012299
:1010300040212846FFF7A3F9012231462846FFF751
:101040009EF96420FFF794F8012220212046FFF743
:1010500096F96420FFF78CF8002220212046FFF744
:101060008EF9012240212046FFF789F90122022151
:101070002846FFF784F96420FFF77AF80022402120
:101080002046FFF77CF9002202212846FFF777F976
:10109000012280212046FFF772F90122042128460F
:1010A000FFF76DF96420FFF763F8002280212046E6
:1010B000FFF765F9002204212846FFF760F90122B5
:1010C00008212046FFF75BF9012208212846FFF797
:1010D00056F96420FFF74CF8002208212046FFF75C
:1010E0004EF9002208212846FFF749F90122102174
:1010F0002046FFF744F9012210212846FFF73FF967
:101100006420FFF735F8002210212046FFF737F959
:10111000002210212846FFF732F901220221204641
:10112000FFF72DF9012220212846FFF728F9642036
:10113000FFF71EF8012220212046FFF720F9642046
:10114000FFF716F8002220212046FFF718F90122A8
:1011500040212046FFF713F9012202212846FFF71C
:101160000EF96420FFF704F8002240212046FFF723
:1011700006F9002202212846FFF701F90122802109
:101180002046FFF7FCF8012204212846FFF7F7F874
:101190006420FEF7EDFF002280212046FFF7EFF8E4
:1011A000002204212846FFF7EAF801220821204600
:1011B000FFF7E5F8012208212846FFF7E0F8642050
:1011C000FEF7D6FF002208212046FFF7D8F80022BC
:1011D00008212846FFF7D3F8012210212046FFF707
:1011E000CEF8012210212846FFF7C9F86420FEF747
:1011F000BFFF012220212046FFF7C1F86420FEF73F
:10120000B7FF002220212046FFF7B9F80122402134
:101210002046FFF7B4F8012202212846FFF7AFF875
:101220006420FEF7A5FF002240212046FFF7A7F823
:10123000002202212846FFF7A2F801228021204641
:10124000FFF79DF8012204212846FFF798F8642053
:10125000FEF78EFF002280212046FFF790F8002243
:1012600004212846FFF78BF8012208212046FFF7CA
:1012700086F8012208212846FFF781F86420FEF74E
:1012800077FF012220212046FFF779F86420FEF73E
:101290006FFF002220212046FFF771F80122402134
:1012A0002046FFF76CF8012202212846FFF767F875
:1012B0006420FEF75DFF002240212046FFF75FF823
:1012C000002202212846FFF75AF8012280212046F9
:1012D000FFF755F8012204212846FFF750F8642053
:1012E000FEF746FF012220212046FFF748F8642040
:1012F000FEF73EFF002220212046FFF740F80122A2
:1013000040212046FFF73BF8012202212846FFF743
:1013100036F86420FEF72CFF012220212046FFF73B
:101320002EF8BDE8F0476420FEF722BF2DE9F04714
:101330009D4C012220212046FFF721F801229B4EDF
:10134000550229463046FFF71AF80122022130469D
:10135000FFF715F8012204213046FFF710F80122AB
:1013600040212046FFF70BF8012280212046FFF79D
:1013700006F89620FEF7FCFE002202213046FEF71A
:10138000FEFF002204213046FEF7F9FF0022402133
:101390002046FEF7F4FF002280212046FEF7EFFFF3
:1013A000012208213046FEF7EAFF012210213046D3
:1013B000FEF7E5FF012208212046FEF7E0FF0122AB
:1013C00010212046FEF7DBFF9620FEF7D1FE00221B
:1013D00008213046FEF7D3FF002210213046FEF7E9
:1013E000CEFF002208212046FEF7C9FF002210216F
:1013F0002046FEF7C4FF012220213046FEF7BFFF42
:10140000012240213046FEF7BAFF01221703394678
:101410003046FEF7B4FF012202212046FEF7AFFF5F
:101420009620FEF7A5FE002220213046FEF7A7FFFA
:10143000002240213046FEF7A2FF00223946304606
:10144000FEF79DFF002202212046FEF798FF0122B1
:1014500080213046FEF793FF4FF480780122414609
:101460003046FEF78CFF4FF4806901224946304632
:10147000FEF785FF4FF4006A012251463046FEF721
:101480007EFF9620FEF774FE002280213046FEF794
:1014900076FF002241463046FEF771FF00224946A2
:1014A0003046FEF76CFF002251463046FEF767FFDC
:1014B000012220213046FEF762FF01224021304602
:1014C000FEF75DFF012239463046FEF758FF012244
:1014D00002212046FEF753FF9620FEF749FE002228
:1014E00020213046FEF74BFF002240213046FEF718
:1014F00046FF002239463046FEF741FF0022022116
:101500002046FEF73CFF012208213046FEF737FF58
:10151000012210213046FEF732FF01220821204629
:10152000FEF72DFF012210212046FEF728FF96200E
:10153000FEF71EFE002208213046FEF720FF0022A3
:1015400010213046FEF71BFF002208212046FEF73F
:1015500016FF002210212046FEF711FF0122042170
:101560003046FEF70CFF012280212046FEF707FFE0
:10157000012202213046FEF702FF012240212046CF
:10158000FEF7FDFE9620FEF7F3FD01222021204606
:10159000FEF7F5FE012229463046FEF7F0FEBDE8D3
:1015A000F047C820FEF7E4BD000C014000080140F0
:1015B000FEF7F8FEFFF73EFAFFF7E8F918480221B8
:1015C00000F1040C04220823102420254026802743
:1015D0008CE8FE00CF0107620F0247624F0287626C
:1015E0008F02C762CF020763343080E87E0000BFFD
:1015F00000F0C8F900F016F800F0C4F900F032F875
:1016000000F0C0F900F04AF800F0BCF900F062F810
:1016100000F0B8F900F08CF800F0B4F9E8E7000049
:101620001800002010B500F0ADF94FF480510B48C0
:10163000FEF7A0FE0A4C002820700ED13220FEF7E3
:1016400097FD2078002808D100F0B6F86420FEF756
:101650008FFDBDE8104000F0AFB810BD000C014098
:101660000000002010B500F08DF94FF4005109483A
:10167000FEF780FE084C0028607009D13220FEF78A
:1016800077FD6078002803D1BDE8104000F0EAB88B
:1016900010BD0000000C01400000002010B500F05B
:1016A00071F94FF480410948FEF764FE084C0028A8
:1016B000A07009D13220FEF75BFDA078002803D18D
:1016C000BDE81040FFF7F8B910BD0000000C014064
:1016D0000000002010B54FF400411348FEF74AFE09
:1016E000124C0028E0701DD13220FEF741FDE07859
:1016F000002817D1FFF71AFE3220FEF739FDFFF759
:1017000015FE3220FEF734FDFFF710FE3220FEF703
:101710002FFDFFF70BFE3220FEF72AFDBDE810403B
:10172000FFF704BE10BD0000000C014000000020C7
:1017300010B500F027F94FF400611D48FEF71AFEBE
:101740001C4C0028207131D13220FEF711FD207988
:1017500000282BD100F030F8E620FEF709FD00F05C
:101760002BF8E620FEF704FD00F07CF8E620FEF7FB
:10177000FFFCFFF7A1F9C820FEF7FAFCFFF7D6FD42
:101780003220FEF7F5FCFFF7D1FD3220FEF7F0FC2A
:10179000FFF7CCFD3220FEF7EBFCFFF7C7FD322050
:1017A000FEF7E6FCBDE81040FFF7C0BD10BD00002D
:1017B000000C0140000000202DE9F041274D41F6CA
:1017C000FF74012221462846FEF7D9FD244E01224E
:1017D0007F213046FEF7D3FD012280213046FEF7FF
:1017E000CEFD4FF496773846FEF7C2FC0022214624
:1017F0002846FEF7C4FD00227F213046FEF7BFFDDC
:10180000002280213046FEF7BAFD3846FEF7B0FCD4
:10181000012221462846FEF7B2FD01227F213046F3
:10182000FEF7ADFD012280213046FEF7A8FD3846C7
:10183000FEF79EFC002221462846FEF7A0FD00226E
:101840007F213046FEF79BFD002280213046FEF7C7
:1018500096FD3846BDE8F041FEF78ABC000801401D
:10186000000C01402DE9F04100F08CF8424F0122BC
:1018700020213846FEF783FD6420FEF779FC3F4DBA
:101880003F4E0124012235F8240081B23046FEF794
:1018900076FD6420FEF76CFC641C0C2CF2DD01224A
:1018A00002213846FEF76BFD6420FEF761FC012241
:1018B00010213846FEF763FD6420FEF759FC012233
:1018C00008213846FEF75BFD6420FEF751FC01223B
:1018D00080213846FEF753FD6420FEF749FC0122C3
:1018E00040213846FEF74BFD4FF49670FEF740FC62
:1018F000002220213846FEF742FD8220FEF738FC08
:10190000002240213846FEF73AFD8220FEF730FCE7
:10191000002280213846FEF732FD8220FEF728FCA7
:10192000002208213846FEF72AFD8220FEF720FC1F
:10193000002210213846FEF722FD8220FEF718FC17
:10194000002202213846FEF71AFD8220FEF710FC25
:101950005FF00C04002235F8240081B23046FEF717
:101960000EFD8220FEF704FC641E012CF2DABDE8B5
:10197000F04100F007B80000000C01401800002002
:101980000008014010B5002241F6FF710748FEF73C
:10199000F6FC074C00227F212046FEF7F0FC204693
:1019A0000022BDE810408021FEF7E9BC000801409C
:1019B000000C0140000000000000000001020304D0
:1019C00006070809E41900080000002018000000BC
:1019D0009A0A0008FC1900081800002050040000B2
:1019E000AA0A00080000000000000000010000003A
:0C19F00010000000000000000024F400C3
:04000005080000ED02
:00000001FF
